:0400000007EF00F016
:0A00080073822BED0AF0CFEF16F023
:10100000003738392F3435362A3132332D23303DED
:101010002B41444320544553540054454D50313ADC
:101020000054454D50323A00256900001E50800B97
:10103000276E1E501E242D6E1DAE21EF08F023EFEB
:1010400008F024EF08F02D802D50D8B42AEF08F0D6
:101050002CEF08F03FEF08F02D28D8A432EF08F06D
:1010600034EF08F03CEF08F0000E1B6E000E1C6E13
:10107000000E1D6E000E1E6E1D8E47EF08F0000E56
:101080001B6E000E1C6E000E1D6E000E1E6E22509A
:10109000800B271A225022242C6E21AE52EF08F02A
:1010A00054EF08F055EF08F02C802C50D8B45BEFCB
:1010B00008F05DEF08F070EF08F02C28D8A463EF7B
:1010C00008F065EF08F06DEF08F0000E1F6E000EDF
:1010D000206E000E216E000E226E218E78EF08F039
:1010E000000E1F6E000E206E000E216E000E226E8E
:1010F0002C50D8B47EEF08F080EF08F088EF08F0AD
:101100002D50D8A486EF08F088EF08F092EF08F091
:10111000000E1B6E000E1C6E000E1D6E000E1E6E6D
:101120002AEF0AF021501B02F3CF32F0F4CF33F054
:101130003250286E296A2A6A2B6A33502E6E2F6A23
:10114000306A316A20501C02F3CF32F0F4CF33F012
:1011500032502826000E29222A222B2233502E26F6
:10116000000E2F22302231221F501D02F3CF32F009
:10117000F4CF33F032502826000E29222A222B22C7
:1011800033502E26000E2F22302231222AC02BF07F
:1011900029C02AF028C029F0286A1F501C02F3CF6A
:1011A00032F0F4CF33F03250282633502922000E8B
:1011B0002A22000E2B2220501B02F3CF32F0F4CF54
:1011C00033F03250282633502922000E2A22000EF6
:1011D0002B222AC02BF029C02AF028C029F0286A27
:1011E0001F501B02F3CF32F0F4CF33F032502826D9
:1011F00033502922000E2A22000E2B2221501C02DD
:10120000F3CF32F0F4CF33F032502E2633502F226A
:10121000000E3022000E312220501D02F3CF32F09A
:10122000F4CF33F032502E2633502F22000E3022CE
:10123000000E312221501D02F3CF32F0F4CF33F0F3
:101240003250236E3350246E256A266A25C026F05C
:1012500024C025F023C024F0236A23502E262450D6
:101260002F22255030222650312228C023F029C0B9
:1012700024F02AC025F02BC026F0190E45EF09F006
:10128000D8902632253224322332E82E40EF09F05E
:1012900023502E2624502F22255030222650312232
:1012A0002AC02BF029C02AF028C029F0286A2C5027
:1012B0002DC023F0246A2326000E2422820E23242C
:1012C000326EFF0E2420336E7BEF09F0D8902E365D
:1012D0002F36303631362BAE70EF09F072EF09F051
:1012E00073EF09F02E80D890283629362A362B360F
:1012F0003206D8A0330630AE80EF09F082EF09F055
:1013000066EF09F0000E2C6E2BAE89EF09F08BEF23
:1013100009F0AFEF09F0FF0E2814236EFF0E291419
:10132000246EFF0E2A14256E7F0E2B14266E23507A
:10133000241025102610D8B4A0EF09F0A2EF09F070
:10134000A6EF09F0010E2C6EAFEF09F02EA0ABEF67
:1013500009F0ADEF09F0AFEF09F0A2EF09F02C5062
:10136000D8B4B5EF09F0B7EF09F0DBEF09F0010EE3
:101370002E26000E2F223022312231A0C2EF09F09A
:10138000C4EF09F0DBEF09F02EC023F02FC024F0EA
:1013900030C025F031C026F02634263225322432E2
:1013A000233223C02EF024C02FF025C030F026C0F9
:1013B00031F0324A332A33BEE6EF09F0335008E108
:1013C0003228D8A0E6EF09F0E8EF09F0F2EF09F0D3
:1013D000000E2E6E000E2F6E800E306E7F0E316E60
:1013E00020EF0AF033BEFFEF09F0335006E132047C
:1013F000D8B0FDEF09F0FFEF09F00BEF0AF0000E97
:101400002E6E000E2F6E000E306E000E316E000E2E
:10141000276E20EF0AF032C02DF0FF0E2E16FF0EC1
:101420002F167F0E3016000E31162DA01AEF0AF07F
:101430001CEF0AF01DEF0AF0308ED8902D30316E7F
:10144000275031122EC01BF02FC01CF030C01DF0F1
:1014500031C01EF012000600FACF09F0FBCF0AF0EF
:10146000D9CF0BF0DACF0CF0F2A839EF0AF03BEF4E
:101470000AF044EF0AF0F2A240EF0AF042EF0AF05D
:1014800044EF0AF056EC19F0F0A649EF0AF04BEFE2
:101490000AF054EF0AF0F0A050EF0AF052EF0AF011
:1014A00054EF0AF054EC19F0F0A859EF0AF05BEF92
:1014B0000AF064EF0AF0F0A260EF0AF062EF0AF0BF
:1014C00064EF0AF052EC19F09DAC69EF0AF06BEF93
:1014D0000AF074EF0AF09EAC70EF0AF072EF0AF0B7
:1014E00074EF0AF0DBEC18F0F2A679EF0AF07BEF6C
:1014F0000AF096EF0AF0F2A080EF0AF082EF0AF00D
:1015000096EF0AF081A887EF0AF089EF0AF096EFCC
:101510000AF07204D8A48FEF0AF091EF0AF096EF68
:101520000AF0000E726E000E3AEC19F0F2A69BEF74
:101530000AF09DEF0AF0B8EF0AF0F2A0A2EF0AF06D
:10154000A4EF0AF0B8EF0AF081B8A9EF0AF0ABEF08
:101550000AF0B8EF0AF07250D8A4B1EF0AF0B3EF76
:101560000AF0B8EF0AF0010E726E010E3AEC19F0B3
:10157000F2A6BDEF0AF0BFEF0AF0DAEF0AF0F2A030
:10158000C4EF0AF0C6EF0AF0DAEF0AF081AACBEF57
:101590000AF0CDEF0AF0DAEF0AF07104D8A4D3EF25
:1015A0000AF0D5EF0AF0DAEF0AF0000E716E000EC5
:1015B0002DEC19F0F2A6DFEF0AF0E1EF0AF0FCEFF4
:1015C0000AF0F2A0E6EF0AF0E8EF0AF0FCEF0AF00A
:1015D00081BAEDEF0AF0EFEF0AF0FCEF0AF071507C
:1015E000D8A4F5EF0AF0F7EF0AF0FCEF0AF0010ECD
:1015F000716E010E2DEC19F0F2A601EF0BF003EF66
:101600000BF01EEF0BF0F2A008EF0BF00AEF0BF05F
:101610001EEF0BF081AC0FEF0BF011EF0BF01EEF94
:101620000BF07004D8A417EF0BF019EF0BF01EEFBE
:101630000BF0000E706E000E20EC19F0F2A623EFF6
:101640000BF025EF0BF040EF0BF0F2A02AEF0BF0C0
:101650002CEF0BF040EF0BF081BC31EF0BF033EFD0
:101660000BF040EF0BF07050D8A439EF0BF03BEFCC
:101670000BF040EF0BF0010E706E010E20EC19F034
:10168000F2A645EF0BF047EF0BF062EF0BF0F2A084
:101690004CEF0BF04EEF0BF062EF0BF081AE53EF1F
:1016A0000BF055EF0BF062EF0BF06F04D8A45BEF7B
:1016B0000BF05DEF0BF062EF0BF0000E6F6E000EA3
:1016C00013EC19F0F2A667EF0BF069EF0BF084EF63
:1016D0000BF0F2A06EEF0BF070EF0BF084EF0BF05D
:1016E00081BE75EF0BF077EF0BF084EF0BF06F50CE
:1016F000D8A47DEF0BF07FEF0BF084EF0BF0010E21
:101700006F6E010E13EC19F00CC0DAFF0BC0D9FF9D
:101710000AC0FBFF09C0FAFF7392110047EC19F0F1
:10172000A60E2A6E000E2B6E010E2C6E070E2D6E6D
:10173000110E2E6E100E2F6E8AEC17F00001FB6F4B
:101740000B0E626E260E616E5E0EE82EFED7612EC7
:10175000FCD7622EFAD7A60E1A6E000E1B6E010E73
:101760001C6E58EC15F00001FB6FA60E2A6E000EE1
:101770002B6E010E2C6E010E2D6E1A0E2E6E100E9B
:101780002F6E8AEC17F00001FB6FA60E2A6E000E7A
:101790002B6E020E2C6E010E2D6E210E2E6E100E73
:1017A0002F6E8AEC17F00001FB6FB00E146E000E66
:1017B000156E000E166E73EC18F00001FB6FB00E84
:1017C000146E000E156E010E166E73EC18F000010B
:1017D000FB6FF60E1F6E280E206E9C0E216E400EC3
:1017E000226EEDC00DF0EEC00EF00F6A106A000E12
:1017F000CEEC0CF00DC01BF00EC01CF00FC01DF0A5
:1018000010C01EF016EC08F01BC034F01CC035F000
:101810001DC036F01EC037F092EC11F034C065F0F8
:1018200035C066F0F60E1F6E280E206E9C0E216EDF
:10183000400E226EEBC00DF0ECC00EF00F6A106A85
:10184000000ECEEC0CF00DC01BF00EC01CF00FC053
:101850001DF010C01EF016EC08F01BC034F01CC0C8
:1018600035F01DC036F01EC037F092EC11F034C0D8
:1018700063F035C064F065C00DF066C00EF0000E78
:10188000106E0A0E0F6E5DEC16F00DC065F00EC006
:1018900066F063C00DF064C00EF0000E106E0A0E0C
:1018A0000F6E5DEC16F00DC063F00EC064F065C005
:1018B000EFF066C0F0F0E50E0001F16F000EF26F80
:1018C000B5EC13F00001FB6F63C0EFF064C0F0F003
:1018D000DF0EF16F000EF26FB5EC13F00001FB6F3D
:1018E000A60E2A6E000E2B6E010E2C6E070E2D6EAC
:1018F000E50E2E6E000E2F6E8AEC17F00001FB6FC6
:10190000A60E2A6E000E2B6E020E2C6E070E2D6E8A
:10191000DF0E2E6E000E2F6E8AEC17F00001FB6FAB
:10192000665009E11F0E655CD8A099EF0CF09BEFA3
:101930000CF0A5EF0CF0B90E176E000E186ED1EC7E
:1019400017F00001FB6FADEF0CF0B90E176E000E33
:10195000186EAEEC17F00001FB6F645007E1050E46
:10196000635CD8B0B6EF0CF0B8EF0CF0C2EF0CF03F
:10197000B70E176E000E186ED1EC17F00001FB6F5A
:10198000D5EF0BF0B70E176E000E186EAEEC17F019
:101990000001FB6FD5EF0BF007EF00F0156E15504F
:1019A000D8B4D5EF0CF0D7EF0CF0F9EF0CF010BE77
:1019B000DEEF0CF0DCEF0CF0F9EF0CF00DC011F0E5
:1019C0000EC012F00FC013F010C014F0111E121E42
:1019D000131E141E112A000E12221322142211C0EB
:1019E00017F012C018F013C019F014C01AF001EF6C
:1019F0000DF00DC017F00EC018F00FC019F010C098
:101A00001AF00D500E100F101010D8A40AEF0DF0A0
:101A10000CEF0DF016EF0DF0000E0D6E000E0E6EB9
:101A2000000E0F6E000E106EA7EF0DF0960E166EE4
:101A300020EF0DF0162AD8901A32193218321732C8
:101A4000000E1714116E000E1814126E000E1914E9
:101A5000136EFE0E1A14146E11501210131014107F
:101A6000D8A435EF0DF037EF0DF01AEF0DF045EF7C
:101A70000DF0162A010E1726000E182219221A221E
:101A8000D8901A32193218321732000E1714116E0C
:101A9000000E1814126E000E1914136EFF0E1A1495
:101AA000146E1150121013101410D8A45AEF0DF028
:101AB0005CEF0DF039EF0DF064EF0DF01606D890E5
:101AC0001736183619361A3619BE69EF0DF06BEF56
:101AD0000DF073EF0DF0020E166071EF0DF073EF65
:101AE0000DF05EEF0DF016B078EF0DF07AEF0DF01F
:101AF0007BEF0DF0199ED890163216C011F0126AC5
:101B0000136A146A11C014F0136A126A116A115030
:101B10001712125018121350191214501A1215508D
:101B2000D8B495EF0DF097EF0DF09FEF0DF010BECC
:101B30009EEF0DF09CEF0DF09FEF0DF01A8E17C089
:101B40000DF018C00EF019C00FF01AC010F01200FE
:101B50002BBEADEF0DF0B0EF0DF0010EB1EF0DF0BB
:101B6000000E326E3250D8B4B8EF0DF0BAEF0DF06F
:101B7000BEEF0DF02A6C2B1ED8B02B2A0001C4BF7B
:101B8000C6EF0DF0C4EF0DF0CCEF0DF0000E2F6E90
:101B9000010E2E6ED0EF0DF0C3C02EF0C4C02FF09A
:101BA000C1C030F0C2C031F03250D8B4DAEF0DF01D
:101BB000DCEF0DF0F3EF0DF03006D8A03106325017
:101BC000D8A4E5EF0DF0E7EF0DF0EDEF0DF0000E0E
:101BD0002D6E2B0E2C6EF1EF0DF0000E2D6E2D0ED6
:101BE0002C6E2CC032F0000E346E1F0E336E000EC1
:101BF00001011F6F2CEF0EF03306D8A03406000E43
:101C00003324D96E010E3420DA6E2AC00DF02BC0B9
:101C10000EF0000E106E0A0E0F6E13EC14F00DC0D5
:101C200013F00EC014F016EC18F01350300FDF6EE6
:101C30002E06D8A02F063006D8A031062AC00DF0F7
:101C40002BC00EF0000E106E0A0E0F6E53EC13F048
:101C50000DC02AF00EC02BF034BE37EF0EF034501A
:101C600008E13304D8A037EF0EF039EF0EF04FEF54
:101C70000EF02A502B10D8A440EF0EF042EF0EF0D9
:101C8000FCEF0DF02FBE4FEF0EF02F5006E12E04AB
:101C9000D8B04DEF0EF04FEF0EF0FCEF0DF03250DC
:101CA000D8B455EF0EF057EF0EF062EF0EF033069A
:101CB000D8A03406000E3324D96E010E3420DA6E1B
:101CC00032C0DFFF28C01DF029C01EF0000E3324F3
:101CD0001F6E010E3420206E30C021F031C022F082
:101CE000E5EC15F012000DC017F00EC018F0115001
:101CF0001210D8A47EEF0EF080EF0EF082EF0EF0FF
:101D00002DEF0FF017C0D9FF18C0DAFF0FC0DFFFAB
:101D100011501724136E12501820146EFF0E132446
:101D2000D96EFF0E1420DA6E0FC0DFFF125007E1EC
:101D3000030E115CD8B09FEF0EF0A1EF0EF0A3EFF1
:101D40000EF02DEF0FF020EE01F01750D9261850AD
:101D5000DA220FC0DFFF20EE02F01750D92618500C
:101D6000DA220FC0DFFF11501724136E1250182013
:101D7000146EFE0E1324D96EFF0E1420DA6E0FC0FF
:101D8000DFFF11501724136E12501820146EFD0E31
:101D90001324D96EFF0E1420DA6E0FC0DFFF12502D
:101DA00007E1070E115CD8B0D8EF0EF0DAEF0EF0B5
:101DB000DCEF0EF02DEF0FF020EE03F01750D926D8
:101DC0001850DA220FC0DFFF11501724136E125083
:101DD0001820146EFC0E1324D96EFF0E1420DA6E38
:101DE0000FC0DFFF125007E1090E115CD8B0FBEF06
:101DF0000EF0FDEF0EF0FFEF0EF02DEF0FF017C01D
:101E000013F018C014F0131E141E134A142A030EE4
:101E10001314156E166A15501726165018221550F1
:101E2000115E1650125AFC0E1116FF0E121624EFF8
:101E30000FF017C0D9FF18C0DAFF0FC0DFFF11067F
:101E4000D8A01206174A182A11501210D8A42BEF46
:101E50000FF02DEF0FF019EF0FF01200010E156EBD
:101E60000D500E10D8B437EF0FF039EF0FF04AEFE6
:101E70000FF00DC0D9FF0EC0DAFFDF30E832E832D4
:101E8000070B0F6E070E0F6448EF0FF04AEF0FF0CD
:101E9000ADEF0FF0000E156ECEEF0FF00DC0D9FFB5
:101EA0000EC0DAFFDF30E832E832070B0F6E010EAA
:101EB000106E0F2A5EEF0FF0D89010360F2E5CEFE9
:101EC0000FF01050FF0A116E0DC0D9FF0EC0DAFFDF
:101ED000DF50070B126E1250020D940EF324D96ED0
:101EE000000EF420DA6EDECF13F0DDCF14F013C055
:101EF000D9FF14C0DAFF1150DF16CEEF0FF00DC07E
:101F0000D9FF0EC0DAFFDF30E832E832070B0F6E80
:101F1000010E106E0F2A8FEF0FF0D89010360F2E93
:101F20008DEF0FF00DC0D9FF0EC0DAFFDF50070BA9
:101F3000116E1150020D940EF324D96E000EF42090
:101F4000DA6EDECF12F0DDCF13F012C0D9FF13C06E
:101F5000DAFF1050DF12CEEF0FF00DC0D9FF0EC028
:101F6000DAFFDFBCB6EF0FF0B9EF0FF0010EBAEFFA
:101F70000FF0000E0F6E106A1050000AD8B4C3EFB5
:101F80000FF04AEF0FF00F50000AD8B44EEF0FF0E9
:101F9000010AD8B47FEF0FF04AEF0FF0155012008E
:101FA00037C0D9FF38C0DAFFDECFF6FFDDCFF7FF4D
:101FB000F86A0800F550250AD8A4E1EF0FF0E3EF26
:101FC0000FF050EF10F037C0D9FF38C0DAFFDE2A2B
:101FD000000EDD22000E0001C26F000EC16FC1C0F5
:101FE000DDF0C369C46937C0D9FF38C0DAFFDECF7E
:101FF00041F0DDCF42F041C0F6FF42C0F7FFF86A82
:102000000800F550640AD8B408EF10F00AEF10F099
:1020100019EF10F041C0F6FF42C0F7FFF86A080060
:10202000F550690AD8A417EF10F019EF10F047EF38
:1020300010F039C0D9FF3AC0DAFFDFCF3BF0020E13
:10204000DE26DFCF3CF0000EDD223BC0D9FF3CC0D6
:10205000DAFFDECF3DF0DDCF3EF0010E41243B6ED6
:10206000000E42203C6E37C0D9FF38C0DAFF3BC0BB
:10207000DEFF3CC0DDFF35C028F036C029F03DC092
:102080002AF03EC02BF0A8EC0DF065EF10F037C041
:10209000D9FF38C0DAFFDE2A000EDD2265EF10F02E
:1020A00037C0D9FF38C0DAFFDECFF6FFDDCFF7FF4C
:1020B000F86A0800F5500D6E0E6A35C00FF036C094
:1020C00010F0EEEC12F047EF10F01200000E276E49
:1020D00023502410D8A46FEF10F071EF10F075EFBB
:1020E00010F0000E286EFAEF10F023C017F024C095
:1020F00018F006EC17F0286E010E2324176E000E60
:102100002420186E06EC17F0286E000E276E27505C
:102110002324256E000E2420266E020E2524176E21
:10212000000E2620186E06EC17F0272A070E2764EB
:102130009CEF10F09EEF10F087EF10F01A0E256E56
:10214000F80EE82EFED7252EFCD700D023C01AF0BB
:1021500024C01BF0380E1C6E58EC15F0070E256ECF
:102160007D0EE82EFED7252EFCD700F023C01AF0F6
:1021700024C01BF0380E1C6E58EC15F0320EE82E01
:10218000FED723C01AF024C01BF0380E1C6E58EC8A
:1021900015F023C01AF024C01BF0010E1C6E58EC81
:1021A00015F023C01AF024C01BF0020E1C6E58EC70
:1021B00015F023C01AF024C01BF0060E1C6E58EC5C
:1021C00015F023C01AF024C01BF00C0E1C6E58EC46
:1021D00015F023C01AF024C01BF0380E1C6E58EC0A
:1021E00015F023C01AF024C01BF0800E1C6E58ECB2
:1021F00015F0286E28501200010E166E0D500E10AC
:10220000D8B405EF11F007EF11F018EF11F00DC081
:10221000D9FF0EC0DAFFDF30E832E832070B106E6C
:10222000070E106416EF11F018EF11F07BEF11F0AC
:10223000000E166E90EF11F00DC0D9FF0EC0DAFF40
:10224000DF30E832E832070B106E010E116E102AF3
:102250002CEF11F0D8901136102E2AEF11F01150FA
:10226000FF0A126E0DC0D9FF0EC0DAFFDF50070B58
:10227000136E1350020D8A0EF324D96E000EF42053
:10228000DA6EDECF14F0DDCF15F014C0D9FF15C023
:10229000DAFF1250DF1690EF11F00DC0D9FF0EC01B
:1022A000DAFFDF30E832E832070B106E010E116EF4
:1022B000102A5DEF11F0D8901136102E5BEF11F05F
:1022C0000DC0D9FF0EC0DAFFDF50070B126E12509F
:1022D000020D8A0EF324D96E000EF420DA6EDECFE2
:1022E00013F0DDCF14F013C0D9FF14C0DAFF115082
:1022F000DF1290EF11F00F50106E116A1150000AAA
:10230000D8B485EF11F018EF11F01050000AD8B4CE
:102310001CEF11F0010AD8B44DEF11F018EF11F0D5
:1023200016501200363437343D6E3D50D8A49BEF22
:1023300011F09DEF11F0A7EF11F0000E346E000EBA
:10234000356E000E366E000E376E14EF12F034C08C
:1023500038F035C039F036C03AF037C03BF0200EC7
:10236000B7EF11F0D8903B323A3239323832E82E9A
:10237000B2EF11F038503C6E368EFF0E3416FF0E61
:102380003516FF0E3616000E3716960E3D5E3DBE14
:10239000CEEF11F0CCEF11F0E4EF11F03D50800AD8
:1023A000970FD8B0D6EF11F0D8EF11F0DAEF11F0A7
:1023B0009DEF11F0D89037323632353234323D3E0F
:1023C000DAEF11F0FCEF11F01F0E3D64EAEF11F0AF
:1023D000ECEF11F0F4EF11F09DEF11F0D8903436DE
:1023E0003536363637363D063D50D8A4FAEF11F073
:1023F000FCEF11F0EEEF11F03C50D8B402EF12F008
:1024000004EF12F00CEF12F0371E361E351E346C3E
:10241000000E35223622372234C034F035C035F074
:1024200036C036F037C037F0120001500210D8B471
:102430001CEF12F01EEF12F027EF12F00350041001
:10244000D8A425EF12F027EF12F05BEF12F0000E88
:10245000086E80EF12F0C350C4CF05F0066A05C0C5
:1024600006F0056A0526000E062203C0D9FF04C047
:10247000DAFF05C0DEFF06C0DDFF7EEF12F0C350BD
:10248000C4CF05F0066A05C006F0056A0526000EF1
:102490000622060E076E063406320532072E4BEF73
:1024A00012F003C0D9FF04C0DAFF05C0DEFF06C08A
:1024B000DDFF7EEF12F020EE06F00150D92602502B
:1024C000DA22DFB266EF12F069EF12F0010E6AEF66
:1024D00012F0000E056E066A0650000AD8B473EFBB
:1024E00012F02BEF12F00550000AD8B43FEF12F0B3
:1024F000010AD8B42BEF12F02BEF12F0010E086E88
:10250000085012000F6EACEF12F09280EDEF12F057
:102510009282EDEF12F09284EDEF12F09286EDEFE1
:1025200012F09288EDEF12F09680EDEF12F09682A5
:10253000EDEF12F09684EDEF12F09384EDEF12F0D0
:102540009386EDEF12F09382EDEF12F09388EDEFAA
:1025500012F09380EDEF12F00F500D6E0E6A0E50D8
:10256000000AD8B4B6EF12F0EDEF12F00D50000AE9
:10257000D8B485EF12F0010AD8B488EF12F0030A3C
:10258000D8B48BEF12F0010AD8B48EEF12F0070A1C
:10259000D8B491EF12F0010AD8B494EF12F0030A04
:1025A000D8B497EF12F0010AD8B49AEF12F00F0ADC
:1025B000D8B49DEF12F0010AD8B4A0EF12F0030ACC
:1025C000D8B4A3EF12F0010AD8B4A6EF12F0070AAC
:1025D000D8B4A9EF12F0EDEF12F012000F50101066
:1025E000D8B4F5EF12F0F7EF12F000EF13F00F5040
:1025F0001010D8A4FEEF12F000EF13F005EF13F067
:102600000D5058EC19F052EF13F020EE0AF00F5075
:10261000D9261050DA22DE50DE10D8B412EF13F0B3
:1026200014EF13F02FEF13F020EE0AF00F50D9261D
:102630001050DA2210EE03F00F50E1261050E22283
:10264000DE50E65CE650800A156EDE50800A1558B2
:10265000D8B02DEF13F02FEF13F052EF13F020EE60
:1026600003F00F50D9261050DA22DECF11F0DDCF63
:1026700012F00FC0D9FF10C0DAFFDECF13F0DDCFAC
:1026800014F011501324D96E12501420DA6E0DC0BC
:10269000DFFF20EE03F00F50D9261050DA22DE2A99
:1026A000000EDD221200000E126E10BE5CEF13F061
:1026B0005AEF13F062EF13F00F6C101ED8B0102A0F
:1026C000010E126E0EBE69EF13F067EF13F06FEF9D
:1026D00013F00D6C0E1ED8B00E2A010E121A000E49
:1026E000146E000E136E0F501010D8B47AEF13F062
:1026F0007CEF13F0A4EF13F0010E116E84EF13F0D2
:10270000D8900F361036112A10AE89EF13F08BEFE8
:1027100013F080EF13F0D890133614360F500D5C81
:1027200010500E58D8A097EF13F099EF13F09EEFCA
:1027300013F00F500D5E10500E5A1380D8901032C7
:102740000F32112E8BEF13F01250D8B4AAEF13F002
:10275000ACEF13F0B0EF13F0136C141ED8B0142AC2
:1027600013C00DF014C00EF01200010E0001F96F3D
:1027700020EEF3F0050EDE6AE806FDE2000EFA6FC9
:10278000F151F211D8A4C7EF13F0C9EF13F0CDEF58
:1027900013F0000EF96F11EF14F0F1C00DF0F2C05C
:1027A0000EF0000E106E200E0F6E000E126E050E53
:1027B000116E73EC0EF0000120EE05F0F151D926F8
:1027C000F251DA22DF6AF30E4B6E000E4C6E280EC9
:1027D0004D6E100E4E6EEFC04FF0F0C050F064EC36
:1027E00017F002EF14F0F30EFA25D96EDA6A000E34
:1027F000DA22FA51F125E16E000EF221E26EDFCF0E
:10280000E7FFFA2BF30E0001FA25D96EDA6A000E03
:10281000DA22DF50D8A40FEF14F011EF14F0F3EF29
:1028200013F0F9511200000E126E0EBE1CEF14F0E0
:102830001AEF14F022EF14F00D6C0E1ED8B00E2A11
:10284000010E126E10BE29EF14F027EF14F02DEFD9
:1028500014F00F6C101ED8B0102A0F501010D8B4FE
:1028600034EF14F036EF14F05AEF14F0010E116E3D
:102870003EEF14F0D8900F361036112A10AE43EF09
:1028800014F045EF14F03AEF14F00F500D5C1050B7
:102890000E58D8A04EEF14F050EF14F054EF14F08F
:1028A0000F500D5E10500E5AD89010320F32112E6C
:1028B00045EF14F01250D8B460EF14F062EF14F04A
:1028C00066EF14F00D6C0E1ED8B00E2A0DC00DF080
:1028D0000EC00EF01200010E296E2606A0EF14F0B5
:1028E00023C01AF024C01BF02650800F1C6E58EC39
:1028F00015F0296EBDEF14F023C01AF024C01BF0B0
:102900002650C00F1C6E58EC15F0296EBDEF14F068
:1029100023C01AF024C01BF02650940F1C6E58ECF4
:1029200015F0296EBDEF14F023C01AF024C01BF07F
:102930002650D40F1C6E58EC15F0296EBDEF14F024
:102940002550276E286A2850000AD8B4AAEF14F040
:10295000BDEF14F02750010AD8B470EF14F0030A49
:10296000D8B47CEF14F0010AD8B488EF14F0070A49
:10297000D8B494EF14F0BDEF14F0295012001150A8
:102980001210D8A4C6EF14F0C8EF14F0CCEF14F076
:10299000000E146E0EEF15F0C29020EE03F01150F1
:1029A000D9261250DA22DF50136E1346134613460F
:1029B000C0501318C70B1318C06E20EE04F011504E
:1029C000D9261250DA22DF50136EC0501318F80BBC
:1029D0001318C06E20EE05F01150D9261250DA22DD
:1029E000DF5082EC12F0F28EF28C9D8C9E9C11C016
:1029F000D9FF12C0DAFFDECFDBF0DDCFDCF011C093
:102A00000DF012C00EF097EC16F011C00DF012C0D0
:102A10000EF022EC16F0C280010E146E145012005B
:102A2000000E226E1A501B10D8A419EF15F01BEFE0
:102A300015F01FEF15F0000E216E56EF15F01AC0BD
:102A40000DF01BC00EF0010E0F6EFCEC10F0000E2E
:102A5000226E22501A241D6E000E1B201E6E020EC6
:102A60001D240D6E000E1E200E6E22C01FF01CC015
:102A700020F01F2A3EEF15F0D89020321F2E3CEF99
:102A800015F02050010B0F6EFCEC10F0222A070EFF
:102A900022644DEF15F04FEF15F029EF15F01AC035
:102AA00017F01BC018F090EC18F0216E21501200A6
:102AB000000E226E1A501B10D8A461EF15F063EFC0
:102AC00015F067EF15F0000E216E9EEF15F01AC09D
:102AD0000DF01BC00EF0000E0F6EFCEC10F0000E9F
:102AE000226E22501A241D6E000E1B201E6E020E36
:102AF0001D240D6E000E1E200E6E22C01FF01CC085
:102B000020F01F2A86EF15F0D89020321F2E84EF78
:102B100015F02050010B0F6EFCEC10F0222A070E6E
:102B2000226495EF15F097EF15F071EF15F01AC0CC
:102B300017F01BC018F090EC18F0216E2150120015
:102B4000010E276E23502410D8A4A9EF15F0ABEF87
:102B500015F0CAEF15F0000E276EE3EF15F023C055
:102B60001AF024C01BF025C0F6FF26C0F7FF000EA8
:102B7000F86E0F0EF76403D00800F55005D0F6CFBD
:102B8000E9FFF7CFEAFFEF501C6E10EC15F0276E4F
:102B9000254A262A25C0F6FF26C0F7FF000EF86E4C
:102BA0000F0EF76403D00800F55005D0F6CFE9FF0B
:102BB000F7CFEAFFEF500009D8A4E1EF15F0E3EFFB
:102BC00015F0AFEF15F02750120022BEEAEF15F016
:102BD000ECEF15F0F2EF15F021C026F022C027F03F
:102BE000F6EF15F0000E276E000E266E000E256E15
:102BF000000E246E08EF16F0000E0E6E200E0D6E05
:102C00001DC00FF01EC010F0EEEC12F0244A252A71
:102C10002650245C2550800A236E2750800A2358B2
:102C2000D8A015EF16F017EF16F0FCEF15F01FC047
:102C300016F020C017F01DC018F01EC019F0F4ECFB
:102C400017F012000D500E10D8A429EF16F02BEF3C
:102C500016F039EF16F05CEF16F0C188C18A5CEF10
:102C600016F0C198C19A5CEF16F0C198C19A5CEF5A
:102C700016F020EE06F00D50D9260E50DA22DFB005
:102C800044EF16F047EF16F0010E48EF16F0000E75
:102C90000F6E106A1050000AD8B451EF16F035EFDD
:102CA00016F00F50000AD8B431EF16F0010AD8B46C
:102CB0002DEF16F035EF16F01200000E126E000E1A
:102CC000116E0F501010D8B468EF16F06AEF16F0BE
:102CD00092EF16F0010E136E72EF16F0D8900F36C9
:102CE0001036132A10AE77EF16F079EF16F06EEF6C
:102CF00016F0D890113612360F500D5C10500E5849
:102D0000D8A085EF16F087EF16F08CEF16F00F5075
:102D10000D5E10500E5A1180D89010320F32132EC3
:102D200079EF16F011C00DF012C00EF012000D5028
:102D30000E10D8A49EEF16F0A0EF16F0ABEF16F031
:102D4000CEEF16F0C08ECEEF16F0C09ECEEF16F08E
:102D5000C08ECEEF16F020EE06F00D50D9260E50A4
:102D6000DA22DFB2B6EF16F0B9EF16F0010EBAEFC5
:102D700016F0000E0F6E106A1050000AD8B4C3EFA0
:102D800016F0A8EF16F00F50000AD8B4A5EF16F011
:102D9000010AD8B4A2EF16F0A8EF16F01200AA0E9E
:102DA000F66E300EF76E000EF86E00EE80F010EE4C
:102DB0003BF00900F5CFEEFFE550E150FAE1A00E3F
:102DC000F66E320EF76E000EF86E00EE6FF010EE3B
:102DD00004F00900F5CFEEFFE550E150FAE101EE15
:102DE00000F0200EEE6AE806FDE100EEBBF0340EC6
:102DF000EE6AE806FDE100EE63F00C0EEE6AE8060E
:102E0000FDE17390739200018EEF0BF017501810D4
:102E1000D8B40DEF17F00FEF17F020EF17F017C031
:102E2000D9FF18C0DAFFDF30E832E832070B196E3D
:102E3000070E19641EEF17F020EF17F024EF17F0BC
:102E4000000E1A6E3AEF17F017C00DF018C00EF012
:102E50002EEC0FF01A6E17C00DF018C00EF017C050
:102E6000D9FF18C0DAFF000EDFBE010E0F6EFCECBA
:102E700010F01A6E1A50120045C049F046C04AF0D0
:102E800050EF17F043C035F044C036F0490E376EAE
:102E9000000E386E47C039F048C03AF0D0EC0FF061
:102EA00049C0F6FF4AC0F7FFF86A0800F55000096C
:102EB000D8A45DEF17F05FEF17F042EF17F0000EA8
:102EC000446E000E436E12004F0E536E000E546E91
:102ED0004BC055F04CC056F0000E596E000E586EA7
:102EE000000E606E000E5F6E550E436E000E446E57
:102EF0004DC045F04EC046F0530E476E000E486E72
:102F00003CEC17F058504B24D96E59504C20DA6ED7
:102F1000DF6A12002A502B10D8A491EF17F093EF1C
:102F200017F097EF17F0000E306EACEF17F02AC0D5
:102F300023F02BC024F02CC025F02DC026F06BEC24
:102F400014F02AC023F02BC024F02EC025F02FC08F
:102F500026F0A0EC15F0306E30501200010E196E04
:102F600017501810D8A4B7EF17F0B9EF17F0BDEF4E
:102F700017F0000E196ECFEF17F017C00DF018C044
:102F80000EF0000E0F6EFCEC10F0010E17240D6E0B
:102F9000000E18200E6E000E0F6EFCEC10F0195093
:102FA0001200010E196E17501810D8A4DAEF17F09E
:102FB000DCEF17F0E0EF17F0000E196EF2EF17F0EC
:102FC00017C00DF018C00EF0010E0F6EFCEC10F0E3
:102FD000010E17240D6E000E18200E6E000E0F6EDF
:102FE000FCEC10F019501200000E1C6E000E1B6E4F
:102FF00005EF18F01AC00DF00E6A18C00FF019C0D6
:1030000010F0EEEC12F01B4A1C2A1B501624D96E4D
:103010001C501720DA6EDF501A6E1A50D8A413EF26
:1030200018F015EF18F0FAEF17F0120014BE23EFA6
:1030300018F0145006E11304D8B021EF18F023EF74
:1030400018F031EF18F013C015F014C016F0151E6B
:10305000161E154A162A15C013F016C014F035EFC7
:1030600018F013C013F014C014F01200010E1D6EFE
:103070001B501C10D8A43FEF18F041EF18F045EF9B
:1030800018F0000E1D6E53EF18F01BC017F01CC097
:1030900018F006EC17F0010E1B24176E000E1C2012
:1030A000186E06EC17F01D501200800F810F820F72
:1030B000830F840F890F8A0F8B0F8C0F8D0F920F48
:1030C000930F940F950F960F020A121A626A727A82
:1030D000030B020A121A222A323A54310005050063
:0530E00002232B131B6D
:1030E600000E176E14501510D8A47CEF18F07EEF62
:1030F60018F080EF18F08EEF18F014C010F015C01D
:1031060011F016C012F0C3EC18F014C00DF015C083
:103116000EF006EC19F0000E1200010E17240D6ECB
:10312600000E18200E6E010E0F6EFCEC10F000D093
:1031360000D000F0010E17240D6E000E18200E6E42
:10314600000E0F6EFCEC10F0196E19501200B00E46
:10315600016E000E026EED0E036E000E046E15EC8F
:1031660012F00001FB6FB00E016E000E026EEB0E48
:10317600036E000E046E15EC12F00001FB6F1200D8
:1031860010501110D8A4CAEF18F0CCEF18F0CEEFFB
:1031960018F0DAEF18F012C013F013461346C250B7
:1031A6001318C30B1318C26E125082EC12F01200E1
:1031B6009E9C0001DB51DC11D8B4E4EF18F0E6EF79
:1031C60018F0F2EF18F002D8F2EF18F00500FA6ED8
:1031D600DB51FD6EDC51FE6EFF6AFA5012001200E2
:1031E600A60E236E000E246E66EC10F0B90E1B6E52
:1031F600000E1C6E36EC18F0B70E1B6E000E1C6E21
:1032060036EC18F012000D500E10D8A40DEF19F080
:103216000FEF19F011EF19F012EF19F0C282120038
:10322600016EF2900150D8A41BEF19F01DEF19F0B2
:103236001FEF19F01FEF19F01200016EF290015006
:10324600D8A428EF19F02AEF19F02CEF19F02CEF7B
:1032560019F01200016EF2900150D8A435EF19F062
:1032660037EF19F039EF19F039EF19F01200016E46
:10327600F2900150D8A442EF19F044EF19F046EF4E
:1032860019F046EF19F01200B00E116E000E126E14
:10329600BFEC14F0F3EC18F0120001010101F092FA
:0C32A6001200F0901200F29212001200D0
:020000040020DA
:08000000FFFFFFFFFFFFFFFF00
:020000040030CA
:0E000000FF020912FF8181FF0FC00FE00F40C9
:00000001FF
